:020000002228B4
:0E0006008312031355088A0054088200080074
:1000140003208A110A128000840AD40A0319D50A1B
:08002400F003031D0A28080087
:10002C0083120313DA09DB09051A1D281A285A084A
:08003C00F0005B08F100080070
:100044008E2183160313860107309F0005160514BD
:100054008701831287018601831688018312880130
:10006400051E35283228051A3C280130D0000030FE
:10007400D10035285008510403198F288701051C25
:100084008528081C5C28881E5C2888120816043001
:10009400FB00CF30FC000130FD00FD0B4F28FC0BB2
:1000A4004F28FB0B4F280000000008120810081509
:1000B40088158528081D8528881D85280811881419
:1000C400D801D9018030F000803059067002031D38
:1000D4006D285808033C031C81280230FB0045307E
:1000E400FC00A930FD00FD0B7528FC0B7528FB0BEB
:1000F400752800000000D80A0319D90A642888105A
:10010400081488118816051A8E28500851040319FA
:100114008D28D001D10185283C2850085104031DA5
:1001240053290F308700081C9C28881E9C28D20164
:10013400D301A428081DA428881DA4280130D200B6
:100144000030D300B328213088000E30CE000030B8
:10015400CF00C3280C3088001630CE000030CF000A
:10016400C32800305306031DB92800305206031972
:10017400A52800305306031DC12801305206031977
:10018400AC2880304F06F00080307002031DCC286C
:1001940000304E02031C3629500851040319D32899
:1001A40036294E08F0004F08F100F00DF10D7010E3
:1001B4007008203E8400000886008030F000803003
:1001C4004F067002031DE8284E08023C031CF52864
:1001D40000305306031DF02800305206031DF52895
:1001E400113088000A298030F00080304F067002F8
:1001F400031DFE284E08023C031C0A290030530646
:10020400031D062901305206031D0A290A308800FD
:10021400D601D70180305706F00080307002031DEC
:1002240015297D30560203183129051A232950084F
:10023400DA005108DB0016207008D0007108D100E4
:1002440017290330FC009730FD00FD0B2729FC0B18
:10025400272900000000D60A0319D70A0C29013007
:10026400CE02031CCF03C3285008510403193B29B1
:10027400532900305306031D412900305206031D43
:1002840048290130D2000030D300522900305306EF
:10029400031D4E2901305206031D5229D201D301F8
:0602A4008F2835285429C3
:10031C0020308400343083120313F0005A30D400A0
:08032C000130D5000A20080091
:1002B4000134003402340034033400340434003490
:1002C4000534003406340034073400340834003470
:1002D400093400341034003411340034123400343E
:1002E4001334003414340034153400341634003418
:1002F40017340034183400341934003420340034F2
:0C0304002134003422340034233400344F
:04031000163400346B
:04031400003400347D
:040318000034003479
:02400E004A2F37
:00000001FF
